:020000040000FA
:10000000012883169000831683128501073099001A
:1000100083169F013F308500A701A9018316003098
:10002000960000308B000130A9003321D4237820C2
:100030000130A9005321D42378200130A9001322D4
:10004000D42378200130A9009321D42378200130D3
:10005000A9005322D42378200130A900D321D4232E
:1000600078200130A9009322D42378200130A90000
:10007000B321D42378200130A9007322D42378201F
:100080000130A9007321D42378200130A900332244
:10009000D42378200130A900F321D4237820013023
:1000A000A9007323D42378200130A9005323D4233B
:1000B00078200130A900B322D42378200130A90090
:1000C000F322D42378200130A900D322D42378202E
:1000D0000130A9001323D42378200130A900332351
:1000E000D42378200130A9009323D4237820132827
:1000F000A720C923AE20C923D820C923BC20C923E7
:10010000E620C923CA20C923F420C923C320C92358
:10011000ED20C923B520C923DF20C923D120C9235D
:100120002521C9231E21C923FB20C9230921C92355
:100130000221C9231021C9231721C9232C21C92336
:1001400083163F3085008312003085000800831637
:100150003C308500831201308500080083163C3056
:10016000850083120230850008008316393085002F
:10017000831202308500080083163930850083120F
:1001800004308500080083162B308500831204306C
:100190008500080083162B308500831210308500FF
:1001A000080083160F308500831210308500080088
:1001B00083160F30850083122030850008008316D7
:1001C0003A308500831201308500080083163A30EA
:1001D0008500831204308500080083162E308500C8
:1001E000831201308500080083162E3085008312AB
:1001F00010308500080083162D30850083120230F0
:100200008500080083162D3085008312103085008C
:10021000080083161D308500831202308500080017
:1002200083161D3085008312203085000800831658
:100230001E308500831201308500080083161E30B1
:100240008500831220308500080083161B3085004E
:10025000831204308500080083161B30850083124A
:10026000203085000800A720FF30A60027082602BE
:10027000031D3B29A0204E21A60B3629291C43290A
:10028000A70B33294829A70AFF302702031D33296A
:10029000291C4C2929100800291408000530A80041
:1002A000A80B50290800AE20FF30A6002708260220
:1002B000031D5B29A0206E21A60B5629291C63294A
:1002C000A70B53296829A70AFF302702031D5329CA
:1002D000291C6C2929100800291408000530A800E1
:1002E000A80B70290800B520FF30A60027082602B9
:1002F000031D7B29A0208E21A60B7629291C83298A
:10030000A70B73298829A70AFF302702031D732929
:10031000291C8C2929100800291408000530A80080
:10032000A80B90290800BC20FF30A6002708260251
:10033000031D9B29A020AE21A60B9629291CA329C9
:10034000A70B9329A829A70AFF302702031D932989
:10035000291CAC2929100800291408000530A80020
:10036000A80BB0290800C320FF30A60027082602EA
:10037000031DBB29A020CE21A60BB629291CC32909
:10038000A70BB329C829A70AFF302702031DB329E9
:10039000291CCC2929100800291408000530A800C0
:1003A000A80BD0290800CA20FF30A6002708260283
:1003B000031DDB29A020EE21A60BD629291CE32949
:1003C000A70BD329E829A70AFF302702031DD32949
:1003D000291CEC2929100800291408000530A80060
:1003E000A80BF0290800D120FF30A600270826021C
:1003F000031DFB29A020EE21A60BF629291C032AA8
:10040000A70BF329082AA70AFF302702031DF329A7
:10041000291C0C2A29100800291408000530A800FE
:10042000A80B102A0800D820FF30A60027082602B3
:10043000031D1B2AA0202E22A60B162A291C232AC4
:10044000A70B132A282AA70AFF302702031D132A05
:10045000291C2C2A29100800291408000530A8009E
:10046000A80B302A0800DF20FF30A600270826024C
:10047000031D3B2AA0204E22A60B362A291C432A04
:10048000A70B332A482AA70AFF302702031D332A65
:10049000291C4C2A29100800291408000530A8003E
:1004A000A80B502A0800E620FF30A60027082602E5
:1004B000031D5B2AA0206E22A60B562A291C632A44
:1004C000A70B532A682AA70AFF302702031D532AC5
:1004D000291C6C2A29100800291408000530A800DE
:1004E000A80B702A0800ED20FF30A600270826027E
:1004F000031D7B2AA0208E22A60B762A291C832A84
:10050000A70B732A882AA70AFF302702031D732A24
:10051000291C8C2A29100800291408000530A8007D
:10052000A80B902A0800F420FF30A6002708260216
:10053000031D9B2AA020AE22A60B962A291CA32AC3
:10054000A70B932AA82AA70AFF302702031D932A84
:10055000291CAC2A29100800291408000530A8001D
:10056000A80BB02A0800FB20FF30A60027082602AF
:10057000031DBB2AA020CE22A60BB62A291CC32A03
:10058000A70BB32AC82AA70AFF302702031DB32AE4
:10059000291CCC2A29100800291408000530A800BD
:1005A000A80BD02A08000221FF30A6002708260247
:1005B000031DDB2AA020EE22A60BD62A291CE32A43
:1005C000A70BD32AE82AA70AFF302702031DD32A44
:1005D000291CEC2A29100800291408000530A8005D
:1005E000A80BF02A08000921FF30A60027082602E0
:1005F000031DFB2AA0200E23A60BF62A291C032B81
:10060000A70BF32A082BA70AFF302702031DF32AA2
:10061000291C0C2B29100800291408000530A800FB
:10062000A80B102B08001021FF30A6002708260277
:10063000031D1B2BA0202E23A60B162B291C232BBE
:10064000A70B132B282BA70AFF302702031D132B00
:10065000291C2C2B29100800291408000530A8009B
:10066000A80B302B08001721FF30A6002708260210
:10067000031D3B2BA0204E23A60B362B291C432BFE
:10068000A70B332B482BA70AFF302702031D332B60
:10069000291C4C2B29100800291408000530A8003B
:1006A000A80B502B08001E21FF30A60027082602A9
:1006B000031D5B2BA0206E23A60B562B291C632B3E
:1006C000A70B532B682BA70AFF302702031D532BC0
:1006D000291C6C2B29100800291408000530A800DB
:1006E000A80B702B0800E620FF30A6002708260282
:1006F000031D7B2BA0208E23A60B762B291C832B7E
:10070000A70B732B882BA70AFF302702031D732B1F
:10071000291C8C2B29100800291408000530A8007A
:10072000A80B902B08002C21FF30A60027082602DA
:10073000031D9B2BA020AE23A60B962B291CA32BBD
:10074000A70B932BA82BA70AFF302702031D932B7F
:10075000291CAC2B29100800291408000530A8001A
:10076000A80BB02B0800C630A2000130A300A20BDA
:10077000BA2BA30BB72BBC2B00000800CE30A20075
:100780000830A300A20BC52BA30BC22BC72B000064
:1007900008001E30A2004F30A300A20BD02BA30BE9
:1007A000CD2BD22B000008000330A2001830A3008C
:1007B0000230A400A20BDD2BA30BDF2BA40BDA2B42
:0407C000E12B080021
:0407C40000340034C9
:02400E00C43FAD
:00000001FF
