:020000040000FA
:10000000012883169000831683128501073099001A
:1000100083169F013F308500A701A9018316003098
:10002000960000308B00D8230130A9003623003021
:10003000A9003623E3230130A90036230030A900AC
:100040003623E3230130A90036230030A9003623EC
:10005000E32384208A2092209C20A820B620C6205A
:10006000D820EC2002211A21342150216E218E212A
:10007000B021D421FA2122224C22A322E323E3231C
:10008000602078227822782260204C222222FA21D5
:10009000D421B0218E216E21502134211A21022138
:1000A000EC20D820C620B620A8209C2092208A20B0
:1000B0008420A322E323E3237822782278221328C2
:1000C0000130A90051230030A9005123E32301305E
:1000D000A9006C230030A9006C23E3230130A900A0
:1000E00036230030A9003623E3230130A9008723FB
:1000F0000030A9008723E3230130A900A2230030A8
:10010000A900A223E3230800A022AA22C223A50B50
:1001100085280800A022AA22C223B122C223A50B4F
:100120008B280800A022AA22C223B122C223DB22EC
:10013000C223A50B93280800A022AA22C223B12221
:10014000C223DB22C223BF22C223A50B9D280800A5
:10015000A022AA22C223B122C223DB22C223BF22B1
:10016000C223E922C223A50BA9280800A022AA22A3
:10017000C223B122C223DB22C223BF22C223E9222F
:10018000C223CD22C223A50BB7280800A022AA2291
:10019000C223B122C223DB22C223BF22C223E9220F
:1001A000C223CD22C223F722C223A50BC7280800F1
:1001B000A022AA22C223B122C223DB22C223BF2251
:1001C000C223E922C223CD22C223F722C223C622A0
:1001D000C223A50BD9280800A022AA22C223B1223B
:1001E000C223DB22C223BF22C223E922C223CD22A3
:1001F000C223F722C223C622C223F022C223A50BA8
:10020000ED280800A022AA22C223B122C223DB22A9
:10021000C223BF22C223E922C223CD22C223F72256
:10022000C223C622C223F022C223B822C223A50BB6
:1002300003290800A022AA22C223B122C223DB2262
:10024000C223BF22C223E922C223CD22C223F72226
:10025000C223C622C223F022C223B822C223E22232
:10026000C223A50B1B290800A022AA22C223B12267
:10027000C223DB22C223BF22C223E922C223CD2212
:10028000C223F722C223C622C223F022C223B822ED
:10029000C223E222C223D422C223A50B352908009F
:1002A000A022AA22C223B122C223DB22C223BF2260
:1002B000C223E922C223CD22C223F722C223C622AF
:1002C000C223F022C223B822C223E222C223D422B4
:1002D000C2232823C223A50B51290800A022AA2249
:1002E000C223B122C223DB22C223BF22C223E922BE
:1002F000C223CD22C223F722C223C622C223F02268
:10030000C223B822C223E222C223D422C22328233A
:10031000C2232123C223A50B6F290800A022AA22F1
:10032000C223B122C223DB22C223BF22C223E9227D
:10033000C223CD22C223F722C223C622C223F02227
:10034000C223B822C223E222C223D422C2232823FA
:10035000C2232123C223FE22C223A50B8F2908001A
:10036000A022AA22C223B122C223DB22C223BF229F
:10037000C223E922C223CD22C223F722C223C622EE
:10038000C223F022C223B822C223E222C223D422F3
:10039000C2232823C2232123C223FE22C2230C23EB
:1003A000C223A50BB1290800A022AA22C223B12290
:1003B000C223DB22C223BF22C223E922C223CD22D1
:1003C000C223F722C223C622C223F022C223B822AC
:1003D000C223E222C223D422C2232823C223212300
:1003E000C223FE22C2230C23C2230523C223A50B52
:1003F000D5290800A022AA22C223B122C223DB22CF
:10040000C223BF22C223E922C223CD22C223F72264
:10041000C223C622C223F022C223B822C223E22270
:10042000C223D422C2232823C2232123C223FE2293
:10043000C2230C23C2230523C2231323C223A50BEB
:10044000FB290800A022AA22C223B122C223DB2258
:10045000C223BF22C223E922C223CD22C223F72214
:10046000C223C622C223F022C223B822C223E22220
:10047000C223D422C2232823C2232123C223FE2243
:10048000C2230C23C2230523C2231323C2231A230E
:10049000C223A50B232A0800A022AA22C223B1222C
:1004A000C223DB22C223BF22C223E922C223CD22E0
:1004B000C223F722C223C622C223F022C223B822BB
:1004C000C223E222C223D422C2232823C22321230F
:1004D000C223FE22C2230C23C2230523C2231323DB
:1004E000C2231A23C2232F23C223A50B4D2A08009F
:1004F000AA22D823B122D823DB22D823BF22D82393
:10050000E922D823CD22D823F722D823C622D82304
:10051000F022D823B822D823E222D823D422D82309
:100520002823D8232123D823FE22D8230C23D82301
:100530000523D8231323D8232F23D8231A23D823E2
:100540006430A500080083163F3085008312003018
:100550008500080083163C30850083120130850039
:10056000080083163C3085008312023085000800A5
:100570008316393085008312023085000800831607
:1005800039308500831204308500080083162B3033
:100590008500831204308500080083162B30850007
:1005A000831210308500080083160F3085008312F7
:1005B00010308500080083160F308500831220302C
:1005C0008500080083163A308500831201308500CB
:1005D000080083163A308500831204308500080035
:1005E00083162E30850083120130850008008316A3
:1005F0002E308500831210308500080083162D30C0
:100600008500831202308500080083162D30850096
:10061000831210308500080083161D308500831278
:1006200002308500080083161D30850083122030BB
:100630008500080083161E30850083120130850076
:10064000080083161E3085008312203085000800C4
:1006500083161B3085008312043085000800831642
:100660001B3085008312203085000800AA22FF304D
:10067000A60027082602031D3E2BA322BD23A60B9E
:10068000392B291C462BA70B362B4B2BA70AFF30E7
:100690002702031D362B291C4F2B29100800291473
:1006A0000800B822FF30A60027082602031D592B98
:1006B000A322BD23A60B542B291C612BA70B512B66
:1006C000662BA70AFF302702031D512B291C6A2B1A
:1006D0002910080029140800E922FF30A600270885
:1006E0002602031D742BA322BD23A60B6F2B291CEE
:1006F0007C2BA70B6C2B812BA70AFF302702031D35
:100700006C2B291C852B29100800291408001323A1
:10071000FF30A60027082602031D8F2BA322BD232E
:10072000A60B8A2B291C972BA70B872B9C2BA70A80
:10073000FF302702031D872B291CA02B291008003E
:1007400029140800D422FF30A60027082602031D22
:10075000AA2BA322BD23A60BA52B291CB22BA70BCA
:10076000A22BB72BA70AFF302702031DA22B291C9F
:10077000BB2B29100800291408000530A800A80B7D
:10078000BF2B0800C630A2000130A300A20BC92B6A
:10079000A30BC62BCB2B00000800CE30A2000830E4
:1007A000A300A20BD42BA30BD12BD62B0000080047
:1007B0001E30A2004F30A300A20BDF2BA30BDC2BBB
:1007C000E12B000008000330A2001830A300023023
:1007D000A400A20BEC2BA30BEE2BA40BE92BF02B0C
:0207E00008000F
:0407E20000340034AB
:02400E00C43FAD
:00000001FF
